{
  "contractName": "CropInsurance",
  "abi": [
    {
      "inputs": [],
      "stateMutability": "nonpayable",
      "type": "constructor"
    },
    {
      "inputs": [],
      "name": "viewAvailablePolicies",
      "outputs": [
        {
          "components": [
            {
              "internalType": "string",
              "name": "policyName",
              "type": "string"
            },
            {
              "internalType": "string",
              "name": "description",
              "type": "string"
            },
            {
              "internalType": "string",
              "name": "maxCoverageLevel",
              "type": "string"
            },
            {
              "internalType": "string",
              "name": "minCoverageLevel",
              "type": "string"
            },
            {
              "internalType": "uint256",
              "name": "salesClosingDate",
              "type": "uint256"
            },
            {
              "internalType": "uint256",
              "name": "finalPlantingDate",
              "type": "uint256"
            },
            {
              "internalType": "uint256",
              "name": "acreageReportingDate",
              "type": "uint256"
            },
            {
              "internalType": "uint256",
              "name": "productionReportingDate",
              "type": "uint256"
            },
            {
              "internalType": "uint256",
              "name": "premiumAmount",
              "type": "uint256"
            }
          ],
          "internalType": "struct CropInsurance.AvailablePolicy[]",
          "name": "",
          "type": "tuple[]"
        }
      ],
      "stateMutability": "view",
      "type": "function",
      "constant": true
    },
    {
      "inputs": [
        {
          "internalType": "uint256",
          "name": "_today",
          "type": "uint256"
        },
        {
          "internalType": "string",
          "name": "_policyName",
          "type": "string"
        },
        {
          "internalType": "string",
          "name": "_farmerName",
          "type": "string"
        },
        {
          "internalType": "string",
          "name": "_providerName",
          "type": "string"
        },
        {
          "internalType": "uint256",
          "name": "_farmlandNumber",
          "type": "uint256"
        },
        {
          "internalType": "string",
          "name": "_coverageLevel",
          "type": "string"
        },
        {
          "internalType": "string",
          "name": "_PracticeAddr",
          "type": "string"
        }
      ],
      "name": "purchasePolicy",
      "outputs": [],
      "stateMutability": "payable",
      "type": "function",
      "payable": true
    },
    {
      "inputs": [
        {
          "internalType": "uint256",
          "name": "_farmlandNumber",
          "type": "uint256"
        }
      ],
      "name": "viewPurchasedPolicy",
      "outputs": [
        {
          "components": [
            {
              "internalType": "string",
              "name": "policyName",
              "type": "string"
            },
            {
              "internalType": "string",
              "name": "farmerName",
              "type": "string"
            },
            {
              "internalType": "string",
              "name": "providerName",
              "type": "string"
            },
            {
              "internalType": "uint256",
              "name": "farmlandNumber",
              "type": "uint256"
            },
            {
              "internalType": "string",
              "name": "coverageLevel",
              "type": "string"
            },
            {
              "internalType": "address payable",
              "name": "farmerAddress",
              "type": "address"
            },
            {
              "internalType": "address payable",
              "name": "providerAddress",
              "type": "address"
            },
            {
              "internalType": "uint256",
              "name": "acreage",
              "type": "uint256"
            },
            {
              "internalType": "uint256",
              "name": "plantDate",
              "type": "uint256"
            },
            {
              "internalType": "uint256",
              "name": "productionPerAcre",
              "type": "uint256"
            },
            {
              "internalType": "string[]",
              "name": "practiceRecords",
              "type": "string[]"
            },
            {
              "internalType": "enum CropInsurance.PolicyState",
              "name": "policyState",
              "type": "uint8"
            },
            {
              "internalType": "string",
              "name": "claimContent",
              "type": "string"
            },
            {
              "internalType": "string",
              "name": "investigationContent",
              "type": "string"
            }
          ],
          "internalType": "struct CropInsurance.Policy",
          "name": "policy",
          "type": "tuple"
        }
      ],
      "stateMutability": "view",
      "type": "function",
      "constant": true
    },
    {
      "inputs": [
        {
          "internalType": "string",
          "name": "_newPracticeAddr",
          "type": "string"
        },
        {
          "internalType": "uint256",
          "name": "_farmlandNumber",
          "type": "uint256"
        }
      ],
      "name": "addPracticeRecord",
      "outputs": [],
      "stateMutability": "nonpayable",
      "type": "function"
    },
    {
      "inputs": [
        {
          "internalType": "uint256",
          "name": "_farmlandNumber",
          "type": "uint256"
        }
      ],
      "name": "viewLastPracticeRecord",
      "outputs": [
        {
          "internalType": "string",
          "name": "_lastestRecord",
          "type": "string"
        }
      ],
      "stateMutability": "view",
      "type": "function",
      "constant": true
    },
    {
      "inputs": [
        {
          "internalType": "uint256",
          "name": "_farmlandNumber",
          "type": "uint256"
        },
        {
          "internalType": "string",
          "name": "_claimContent",
          "type": "string"
        }
      ],
      "name": "claimLoss",
      "outputs": [
        {
          "internalType": "bool",
          "name": "_isSuccess",
          "type": "bool"
        }
      ],
      "stateMutability": "nonpayable",
      "type": "function"
    },
    {
      "inputs": [
        {
          "internalType": "string",
          "name": "_policyName",
          "type": "string"
        },
        {
          "internalType": "string",
          "name": "_description",
          "type": "string"
        },
        {
          "internalType": "string",
          "name": "_maxCoverageLevel",
          "type": "string"
        },
        {
          "internalType": "string",
          "name": "_minCoverageLevel",
          "type": "string"
        },
        {
          "internalType": "uint256",
          "name": "_salesClosingDate",
          "type": "uint256"
        },
        {
          "internalType": "uint256",
          "name": "_finalPlantingDate",
          "type": "uint256"
        },
        {
          "internalType": "uint256",
          "name": "_acreageReportingDate",
          "type": "uint256"
        },
        {
          "internalType": "uint256",
          "name": "_productionReportingDate",
          "type": "uint256"
        },
        {
          "internalType": "uint256",
          "name": "_premiumAmount",
          "type": "uint256"
        }
      ],
      "name": "publishNewPolicy",
      "outputs": [],
      "stateMutability": "nonpayable",
      "type": "function"
    },
    {
      "inputs": [
        {
          "internalType": "string",
          "name": "_providerName",
          "type": "string"
        },
        {
          "internalType": "address payable",
          "name": "_providerAddress",
          "type": "address"
        }
      ],
      "name": "addProvider",
      "outputs": [
        {
          "internalType": "bool",
          "name": "_isSuccessful",
          "type": "bool"
        }
      ],
      "stateMutability": "nonpayable",
      "type": "function"
    },
    {
      "inputs": [],
      "name": "viewProviders",
      "outputs": [
        {
          "internalType": "string[]",
          "name": "_name",
          "type": "string[]"
        }
      ],
      "stateMutability": "view",
      "type": "function",
      "constant": true
    },
    {
      "inputs": [
        {
          "internalType": "string",
          "name": "_providerName",
          "type": "string"
        }
      ],
      "name": "viewSoldPoliciesByProvider",
      "outputs": [
        {
          "components": [
            {
              "internalType": "string",
              "name": "policyName",
              "type": "string"
            },
            {
              "internalType": "string",
              "name": "farmerName",
              "type": "string"
            },
            {
              "internalType": "string",
              "name": "providerName",
              "type": "string"
            },
            {
              "internalType": "uint256",
              "name": "farmlandNumber",
              "type": "uint256"
            },
            {
              "internalType": "string",
              "name": "coverageLevel",
              "type": "string"
            },
            {
              "internalType": "address payable",
              "name": "farmerAddress",
              "type": "address"
            },
            {
              "internalType": "address payable",
              "name": "providerAddress",
              "type": "address"
            },
            {
              "internalType": "uint256",
              "name": "acreage",
              "type": "uint256"
            },
            {
              "internalType": "uint256",
              "name": "plantDate",
              "type": "uint256"
            },
            {
              "internalType": "uint256",
              "name": "productionPerAcre",
              "type": "uint256"
            },
            {
              "internalType": "string[]",
              "name": "practiceRecords",
              "type": "string[]"
            },
            {
              "internalType": "enum CropInsurance.PolicyState",
              "name": "policyState",
              "type": "uint8"
            },
            {
              "internalType": "string",
              "name": "claimContent",
              "type": "string"
            },
            {
              "internalType": "string",
              "name": "investigationContent",
              "type": "string"
            }
          ],
          "internalType": "struct CropInsurance.Policy[]",
          "name": "_policies",
          "type": "tuple[]"
        }
      ],
      "stateMutability": "view",
      "type": "function",
      "constant": true
    },
    {
      "inputs": [
        {
          "internalType": "uint256",
          "name": "_farmlandNumber",
          "type": "uint256"
        }
      ],
      "name": "calculateIndemnity",
      "outputs": [
        {
          "internalType": "string",
          "name": "_coverageLevel",
          "type": "string"
        },
        {
          "internalType": "uint256",
          "name": "_acreage",
          "type": "uint256"
        },
        {
          "internalType": "uint256",
          "name": "_productionPerAcer",
          "type": "uint256"
        }
      ],
      "stateMutability": "view",
      "type": "function",
      "constant": true
    },
    {
      "inputs": [
        {
          "internalType": "address payable",
          "name": "_farmerAddress",
          "type": "address"
        },
        {
          "internalType": "uint256",
          "name": "_farmlandNumber",
          "type": "uint256"
        }
      ],
      "name": "payIndemnity",
      "outputs": [
        {
          "internalType": "bool",
          "name": "_isSuccessful",
          "type": "bool"
        }
      ],
      "stateMutability": "payable",
      "type": "function",
      "payable": true
    },
    {
      "inputs": [
        {
          "internalType": "string",
          "name": "_agentName",
          "type": "string"
        },
        {
          "internalType": "address payable",
          "name": "_agentAddress",
          "type": "address"
        }
      ],
      "name": "addAgent",
      "outputs": [
        {
          "internalType": "bool",
          "name": "_isSuccessful",
          "type": "bool"
        }
      ],
      "stateMutability": "nonpayable",
      "type": "function"
    },
    {
      "inputs": [
        {
          "internalType": "string",
          "name": "_adjusterName",
          "type": "string"
        },
        {
          "internalType": "address payable",
          "name": "_adjusterAddress",
          "type": "address"
        }
      ],
      "name": "addAdjuster",
      "outputs": [
        {
          "internalType": "bool",
          "name": "_isSuccessful",
          "type": "bool"
        }
      ],
      "stateMutability": "nonpayable",
      "type": "function"
    },
    {
      "inputs": [],
      "name": "viewClaimedPolicy",
      "outputs": [
        {
          "components": [
            {
              "internalType": "string",
              "name": "policyName",
              "type": "string"
            },
            {
              "internalType": "string",
              "name": "farmerName",
              "type": "string"
            },
            {
              "internalType": "string",
              "name": "providerName",
              "type": "string"
            },
            {
              "internalType": "uint256",
              "name": "farmlandNumber",
              "type": "uint256"
            },
            {
              "internalType": "string",
              "name": "coverageLevel",
              "type": "string"
            },
            {
              "internalType": "address payable",
              "name": "farmerAddress",
              "type": "address"
            },
            {
              "internalType": "address payable",
              "name": "providerAddress",
              "type": "address"
            },
            {
              "internalType": "uint256",
              "name": "acreage",
              "type": "uint256"
            },
            {
              "internalType": "uint256",
              "name": "plantDate",
              "type": "uint256"
            },
            {
              "internalType": "uint256",
              "name": "productionPerAcre",
              "type": "uint256"
            },
            {
              "internalType": "string[]",
              "name": "practiceRecords",
              "type": "string[]"
            },
            {
              "internalType": "enum CropInsurance.PolicyState",
              "name": "policyState",
              "type": "uint8"
            },
            {
              "internalType": "string",
              "name": "claimContent",
              "type": "string"
            },
            {
              "internalType": "string",
              "name": "investigationContent",
              "type": "string"
            }
          ],
          "internalType": "struct CropInsurance.Policy[]",
          "name": "claimedPolicyList",
          "type": "tuple[]"
        }
      ],
      "stateMutability": "view",
      "type": "function",
      "constant": true
    },
    {
      "inputs": [
        {
          "internalType": "uint256",
          "name": "_farmlandNumber",
          "type": "uint256"
        },
        {
          "internalType": "string",
          "name": "_adjusterName",
          "type": "string"
        }
      ],
      "name": "assignClaim",
      "outputs": [
        {
          "internalType": "bool",
          "name": "_isSuccess",
          "type": "bool"
        }
      ],
      "stateMutability": "nonpayable",
      "type": "function"
    },
    {
      "inputs": [
        {
          "internalType": "string",
          "name": "_agentName",
          "type": "string"
        }
      ],
      "name": "viewFeedback",
      "outputs": [
        {
          "internalType": "string[]",
          "name": "_feedback",
          "type": "string[]"
        }
      ],
      "stateMutability": "view",
      "type": "function",
      "constant": true
    },
    {
      "inputs": [],
      "name": "viewWorkload",
      "outputs": [
        {
          "components": [
            {
              "internalType": "string",
              "name": "policyName",
              "type": "string"
            },
            {
              "internalType": "string",
              "name": "farmerName",
              "type": "string"
            },
            {
              "internalType": "string",
              "name": "providerName",
              "type": "string"
            },
            {
              "internalType": "uint256",
              "name": "farmlandNumber",
              "type": "uint256"
            },
            {
              "internalType": "string",
              "name": "coverageLevel",
              "type": "string"
            },
            {
              "internalType": "address payable",
              "name": "farmerAddress",
              "type": "address"
            },
            {
              "internalType": "address payable",
              "name": "providerAddress",
              "type": "address"
            },
            {
              "internalType": "uint256",
              "name": "acreage",
              "type": "uint256"
            },
            {
              "internalType": "uint256",
              "name": "plantDate",
              "type": "uint256"
            },
            {
              "internalType": "uint256",
              "name": "productionPerAcre",
              "type": "uint256"
            },
            {
              "internalType": "string[]",
              "name": "practiceRecords",
              "type": "string[]"
            },
            {
              "internalType": "enum CropInsurance.PolicyState",
              "name": "policyState",
              "type": "uint8"
            },
            {
              "internalType": "string",
              "name": "claimContent",
              "type": "string"
            },
            {
              "internalType": "string",
              "name": "investigationContent",
              "type": "string"
            }
          ],
          "internalType": "struct CropInsurance.Policy[]",
          "name": "_myWork",
          "type": "tuple[]"
        }
      ],
      "stateMutability": "view",
      "type": "function",
      "constant": true
    },
    {
      "inputs": [
        {
          "internalType": "uint256",
          "name": "_farmlandNumber",
          "type": "uint256"
        },
        {
          "internalType": "string",
          "name": "_res",
          "type": "string"
        }
      ],
      "name": "addInvestigationResult",
      "outputs": [
        {
          "internalType": "bool",
          "name": "_isSuccess",
          "type": "bool"
        }
      ],
      "stateMutability": "nonpayable",
      "type": "function"
    },
    {
      "inputs": [
        {
          "internalType": "string",
          "name": "_feedback",
          "type": "string"
        }
      ],
      "name": "addFeedback",
      "outputs": [
        {
          "internalType": "bool",
          "name": "_isSuccess",
          "type": "bool"
        }
      ],
      "stateMutability": "nonpayable",
      "type": "function"
    }
  ],
  "bytecode": "0x608060405234801561001057600080fd5b5033600260006101000a81548173ffffffffffffffffffffffffffffffffffffffff021916908373ffffffffffffffffffffffffffffffffffffffff160217905550615c9f80620000626000396000f3fe60806040526004361061011f5760003560e01c806382ccf709116100a0578063cc74ec3811610064578063cc74ec381461044c578063e03aa80f14610489578063f810d4f1146104b4578063f8d76309146104f1578063fb13b3da146105215761011f565b806382ccf7091461032d578063909eea3c1461036a5780639911f34b14610395578063b608a804146103d2578063bf8e81811461040f5761011f565b806354d7c366116100e757806354d7c366146102435780635c056de81461028057806364d93378146102bf5780636a5892a9146102e85780636d1ac4a5146103045761011f565b806308cd179a1461012457806316ca61ff1461014f5780631e6e256d1461018c5780632179debe146101c95780633f47f15714610206575b600080fd5b34801561013057600080fd5b5061013961054c565b60405161014691906156f2565b60405180910390f35b34801561015b57600080fd5b5061017660048036038101906101719190614b2d565b61086a565b60405161018391906156ae565b60405180910390f35b34801561019857600080fd5b506101b360048036038101906101ae9190614b6e565b610a77565b6040516101c09190615714565b60405180910390f35b3480156101d557600080fd5b506101f060048036038101906101eb9190614d65565b610c97565b6040516101fd9190615714565b60405180910390f35b34801561021257600080fd5b5061022d60048036038101906102289190614d65565b610dd3565b60405161023a9190615714565b60405180910390f35b34801561024f57600080fd5b5061026a60048036038101906102659190614b2d565b610efc565b6040516102779190615714565b60405180910390f35b34801561028c57600080fd5b506102a760048036038101906102a29190614d3c565b61101c565b6040516102b693929190615751565b60405180910390f35b3480156102cb57600080fd5b506102e660048036038101906102e19190614ce8565b611695565b005b61030260048036038101906102fd9190614db9565b6116ef565b005b34801561031057600080fd5b5061032b60048036038101906103269190614bc2565b611df6565b005b34801561033957600080fd5b50610354600480360381019061034f9190614d3c565b612024565b604051610361919061572f565b60405180910390f35b34801561037657600080fd5b5061037f61264f565b60405161038c91906156f2565b60405180910390f35b3480156103a157600080fd5b506103bc60048036038101906103b79190614b6e565b612e87565b6040516103c99190615714565b60405180910390f35b3480156103de57600080fd5b506103f960048036038101906103f49190614d65565b61310d565b6040516104069190615714565b60405180910390f35b34801561041b57600080fd5b5061043660048036038101906104319190614d3c565b613488565b604051610443919061582f565b60405180910390f35b34801561045857600080fd5b50610473600480360381019061046e9190614b2d565b613a5c565b60405161048091906156f2565b60405180910390f35b34801561049557600080fd5b5061049e614166565b6040516104ab91906156ae565b60405180910390f35b3480156104c057600080fd5b506104db60048036038101906104d69190614b6e565b61423f565b6040516104e89190615714565b60405180910390f35b61050b60048036038101906105069190614af1565b6144c5565b6040516105189190615714565b60405180910390f35b34801561052d57600080fd5b50610536614582565b60405161054391906156d0565b60405180910390f35b606060011515600560003373ffffffffffffffffffffffffffffffffffffffff1673ffffffffffffffffffffffffffffffffffffffff16815260200190815260200160002060009054906101000a900460ff161515146105e1576040517f08c379a00000000000000000000000000000000000000000000000000000000081526004016105d89061580f565b60405180910390fd5b6000601260003373ffffffffffffffffffffffffffffffffffffffff1673ffffffffffffffffffffffffffffffffffffffff16815260200190815260200160002090506000816000018054905090506000805b828110156106e55761064461485c565b6002600581111561067e577f4e487b7100000000000000000000000000000000000000000000000000000000600052602160045260246000fd5b81610160015160058111156106bc577f4e487b7100000000000000000000000000000000000000000000000000000000600052602160045260246000fd5b14156106d15782806106cd90615b11565b9350505b5080806106dd90615b11565b915050610634565b5060008167ffffffffffffffff811115610728577f4e487b7100000000000000000000000000000000000000000000000000000000600052604160045260246000fd5b60405190808252806020026020018201604052801561076157816020015b61074e61485c565b8152602001906001900390816107465790505b5090506000805b8481101561085e5761077861485c565b600260058111156107b2577f4e487b7100000000000000000000000000000000000000000000000000000000600052602160045260246000fd5b81610160015160058111156107f0577f4e487b7100000000000000000000000000000000000000000000000000000000600052602160045260246000fd5b141561084a5780848481518110610830577f4e487b7100000000000000000000000000000000000000000000000000000000600052603260045260246000fd5b6020026020010181905250828061084690615b11565b9350505b50808061085690615b11565b915050610768565b50819550505050505090565b606060011515600560003373ffffffffffffffffffffffffffffffffffffffff1673ffffffffffffffffffffffffffffffffffffffff16815260200190815260200160002060009054906101000a900460ff161515146108ff576040517f08c379a00000000000000000000000000000000000000000000000000000000081526004016108f69061580f565b60405180910390fd5b60006008836040516109119190615697565b908152602001604051809103902060009054906101000a900473ffffffffffffffffffffffffffffffffffffffff1690506000600a60008373ffffffffffffffffffffffffffffffffffffffff1673ffffffffffffffffffffffffffffffffffffffff16815260200190815260200160002060405180602001604052908160008201805480602002602001604051908101604052809291908181526020016000905b82821015610a5f5783829060005260206000200180546109d290615adf565b80601f01602080910402602001604051908101604052809291908181526020018280546109fe90615adf565b8015610a4b5780601f10610a2057610100808354040283529160200191610a4b565b820191906000526020600020905b815481529060010190602001808311610a2e57829003601f168201915b5050505050815260200190600101906109b3565b50505050815250509050806000015192505050919050565b6000600260009054906101000a900473ffffffffffffffffffffffffffffffffffffffff1673ffffffffffffffffffffffffffffffffffffffff163373ffffffffffffffffffffffffffffffffffffffff1614610b09576040517f08c379a0000000000000000000000000000000000000000000000000000000008152600401610b009061580f565b60405180910390fd5b60001515600560008473ffffffffffffffffffffffffffffffffffffffff1673ffffffffffffffffffffffffffffffffffffffff16815260200190815260200160002060009054906101000a900460ff16151514610b9c576040517f08c379a0000000000000000000000000000000000000000000000000000000008152600401610b93906157cf565b60405180910390fd5b81600484604051610bad9190615697565b908152602001604051809103902060006101000a81548173ffffffffffffffffffffffffffffffffffffffff021916908373ffffffffffffffffffffffffffffffffffffffff1602179055506001600560008473ffffffffffffffffffffffffffffffffffffffff1673ffffffffffffffffffffffffffffffffffffffff16815260200190815260200160002060006101000a81548160ff021916908315150217905550600383908060018154018082558091505060019003906000526020600020016000909190919091509080519060200190610c8c92919061492f565b506001905092915050565b600080601160003373ffffffffffffffffffffffffffffffffffffffff1673ffffffffffffffffffffffffffffffffffffffff16815260200190815260200160002090506001151581600101600086815260200190815260200160002060009054906101000a900460ff16151514610d44576040517f08c379a0000000000000000000000000000000000000000000000000000000008152600401610d3b9061580f565b60405180910390fd5b60006010600086815260200190815260200160002090508381600c019080519060200190610d7392919061492f565b50600281600b0160006101000a81548160ff02191690836005811115610dc2577f4e487b7100000000000000000000000000000000000000000000000000000000600052602160045260246000fd5b021790555060019250505092915050565b600080600d83604051610de69190615697565b908152602001604051809103902060009054906101000a900473ffffffffffffffffffffffffffffffffffffffff1690506000600f60008373ffffffffffffffffffffffffffffffffffffffff1673ffffffffffffffffffffffffffffffffffffffff1681526020019081526020016000209050806000018590806001815401808255809150506001900390600052602060002001600090919091909150556000601060008781526020019081526020016000209050600381600b0160006101000a81548160ff02191690836005811115610eea577f4e487b7100000000000000000000000000000000000000000000000000000000600052602160045260246000fd5b02179055506001935050505092915050565b600060011515600960003373ffffffffffffffffffffffffffffffffffffffff1673ffffffffffffffffffffffffffffffffffffffff16815260200190815260200160002060009054906101000a900460ff16151514610f91576040517f08c379a0000000000000000000000000000000000000000000000000000000008152600401610f889061580f565b60405180910390fd5b6000600a60003373ffffffffffffffffffffffffffffffffffffffff1673ffffffffffffffffffffffffffffffffffffffff1681526020019081526020016000209050806000018390806001815401808255809150506001900390600052602060002001600090919091909150908051906020019061101192919061492f565b506001915050919050565b606060008060011515600560003373ffffffffffffffffffffffffffffffffffffffff1673ffffffffffffffffffffffffffffffffffffffff16815260200190815260200160002060009054906101000a900460ff161515146110b4576040517f08c379a00000000000000000000000000000000000000000000000000000000081526004016110ab9061580f565b60405180910390fd5b600060106000868152602001908152602001600020604051806101c00160405290816000820180546110e590615adf565b80601f016020809104026020016040519081016040528092919081815260200182805461111190615adf565b801561115e5780601f106111335761010080835404028352916020019161115e565b820191906000526020600020905b81548152906001019060200180831161114157829003601f168201915b5050505050815260200160018201805461117790615adf565b80601f01602080910402602001604051908101604052809291908181526020018280546111a390615adf565b80156111f05780601f106111c5576101008083540402835291602001916111f0565b820191906000526020600020905b8154815290600101906020018083116111d357829003601f168201915b5050505050815260200160028201805461120990615adf565b80601f016020809104026020016040519081016040528092919081815260200182805461123590615adf565b80156112825780601f1061125757610100808354040283529160200191611282565b820191906000526020600020905b81548152906001019060200180831161126557829003601f168201915b50505050508152602001600382015481526020016004820180546112a590615adf565b80601f01602080910402602001604051908101604052809291908181526020018280546112d190615adf565b801561131e5780601f106112f35761010080835404028352916020019161131e565b820191906000526020600020905b81548152906001019060200180831161130157829003601f168201915b505050505081526020016005820160009054906101000a900473ffffffffffffffffffffffffffffffffffffffff1673ffffffffffffffffffffffffffffffffffffffff1673ffffffffffffffffffffffffffffffffffffffff1681526020016006820160009054906101000a900473ffffffffffffffffffffffffffffffffffffffff1673ffffffffffffffffffffffffffffffffffffffff1673ffffffffffffffffffffffffffffffffffffffff168152602001600782015481526020016008820154815260200160098201548152602001600a8201805480602002602001604051908101604052809291908181526020016000905b828210156114c257838290600052602060002001805461143590615adf565b80601f016020809104026020016040519081016040528092919081815260200182805461146190615adf565b80156114ae5780601f10611483576101008083540402835291602001916114ae565b820191906000526020600020905b81548152906001019060200180831161149157829003601f168201915b505050505081526020019060010190611416565b505050508152602001600b820160009054906101000a900460ff166005811115611515577f4e487b7100000000000000000000000000000000000000000000000000000000600052602160045260246000fd5b600581111561154d577f4e487b7100000000000000000000000000000000000000000000000000000000600052602160045260246000fd5b8152602001600c8201805461156190615adf565b80601f016020809104026020016040519081016040528092919081815260200182805461158d90615adf565b80156115da5780601f106115af576101008083540402835291602001916115da565b820191906000526020600020905b8154815290600101906020018083116115bd57829003601f168201915b50505050508152602001600d820180546115f390615adf565b80601f016020809104026020016040519081016040528092919081815260200182805461161f90615adf565b801561166c5780601f106116415761010080835404028352916020019161166c565b820191906000526020600020905b81548152906001019060200180831161164f57829003601f168201915b505050505081525050905080608001518160e00151826101200151935093509350509193909250565b600060106000838152602001908152602001600020905080600a01839080600181540180825580915050600190039060005260206000200160009091909190915090805190602001906116e992919061492f565b50505050565b343373ffffffffffffffffffffffffffffffffffffffff16311015611749576040517f08c379a0000000000000000000000000000000000000000000000000000000008152600401611740906157af565b60405180910390fd5b6000808760405161175a9190615697565b90815260200160405180910390206040518061012001604052908160008201805461178490615adf565b80601f01602080910402602001604051908101604052809291908181526020018280546117b090615adf565b80156117fd5780601f106117d2576101008083540402835291602001916117fd565b820191906000526020600020905b8154815290600101906020018083116117e057829003601f168201915b5050505050815260200160018201805461181690615adf565b80601f016020809104026020016040519081016040528092919081815260200182805461184290615adf565b801561188f5780601f106118645761010080835404028352916020019161188f565b820191906000526020600020905b81548152906001019060200180831161187257829003601f168201915b505050505081526020016002820180546118a890615adf565b80601f01602080910402602001604051908101604052809291908181526020018280546118d490615adf565b80156119215780601f106118f657610100808354040283529160200191611921565b820191906000526020600020905b81548152906001019060200180831161190457829003601f168201915b5050505050815260200160038201805461193a90615adf565b80601f016020809104026020016040519081016040528092919081815260200182805461196690615adf565b80156119b35780601f10611988576101008083540402835291602001916119b3565b820191906000526020600020905b81548152906001019060200180831161199657829003601f168201915b505050505081526020016004820154815260200160058201548152602001600682015481526020016007820154815260200160088201548152505090506000816101000151905080341015611a3d576040517f08c379a0000000000000000000000000000000000000000000000000000000008152600401611a34906157ef565b60405180910390fd5b600082608001519050808a1115611a89576040517f08c379a0000000000000000000000000000000000000000000000000000000008152600401611a809061578f565b60405180910390fd5b6000600488604051611a9b9190615697565b908152602001604051809103902060009054906101000a900473ffffffffffffffffffffffffffffffffffffffff16905060006010600089815260200190815260200160002090508a816000019080519060200190611afb92919061492f565b5089816001019080519060200190611b1492919061492f565b5088816002019080519060200190611b2d92919061492f565b5087816003018190555086816004019080519060200190611b4f92919061492f565b50338160050160006101000a81548173ffffffffffffffffffffffffffffffffffffffff021916908373ffffffffffffffffffffffffffffffffffffffff160217905550818160060160006101000a81548173ffffffffffffffffffffffffffffffffffffffff021916908373ffffffffffffffffffffffffffffffffffffffff160217905550600181600b0160006101000a81548160ff02191690836005811115611c24577f4e487b7100000000000000000000000000000000000000000000000000000000600052602160045260246000fd5b021790555080600a0186908060018154018082558091505060019003906000526020600020016000909190919091509080519060200190611c6692919061492f565b506000601160003373ffffffffffffffffffffffffffffffffffffffff1673ffffffffffffffffffffffffffffffffffffffff16815260200190815260200160002090508060000189908060018154018082558091505060019003906000526020600020016000909190919091505560018160010160008b815260200190815260200160002060006101000a81548160ff0219169083151502179055506000601260008573ffffffffffffffffffffffffffffffffffffffff1673ffffffffffffffffffffffffffffffffffffffff1681526020019081526020016000209050806000018a908060018154018082558091505060019003906000526020600020016000909190919091505560018160010160008c815260200190815260200160002060006101000a81548160ff0219169083151502179055508373ffffffffffffffffffffffffffffffffffffffff166108fc349081150290604051600060405180830381858888f19350505050158015611de5573d6000803e3d6000fd5b505050505050505050505050505050565b600260009054906101000a900473ffffffffffffffffffffffffffffffffffffffff1673ffffffffffffffffffffffffffffffffffffffff163373ffffffffffffffffffffffffffffffffffffffff1614611e86576040517f08c379a0000000000000000000000000000000000000000000000000000000008152600401611e7d9061580f565b60405180910390fd5b6000808a604051611e979190615697565b9081526020016040518091039020905089816000019080519060200190611ebf92919061492f565b5088816001019080519060200190611ed892919061492f565b5087816002019080519060200190611ef192919061492f565b5086816003019080519060200190611f0a92919061492f565b5085816004018190555084816005018190555083816006018190555082816007018190555081816008018190555060018190806001815401808255809150506001900390600052602060002090600902016000909190919091506000820181600001908054611f7890615adf565b611f839291906149b5565b506001820181600101908054611f9890615adf565b611fa39291906149b5565b506002820181600201908054611fb890615adf565b611fc39291906149b5565b506003820181600301908054611fd890615adf565b611fe39291906149b5565b506004820154816004015560058201548160050155600682015481600601556007820154816007015560088201548160080155505050505050505050505050565b6060600060106000848152602001908152602001600020604051806101c001604052908160008201805461205790615adf565b80601f016020809104026020016040519081016040528092919081815260200182805461208390615adf565b80156120d05780601f106120a5576101008083540402835291602001916120d0565b820191906000526020600020905b8154815290600101906020018083116120b357829003601f168201915b505050505081526020016001820180546120e990615adf565b80601f016020809104026020016040519081016040528092919081815260200182805461211590615adf565b80156121625780601f1061213757610100808354040283529160200191612162565b820191906000526020600020905b81548152906001019060200180831161214557829003601f168201915b5050505050815260200160028201805461217b90615adf565b80601f01602080910402602001604051908101604052809291908181526020018280546121a790615adf565b80156121f45780601f106121c9576101008083540402835291602001916121f4565b820191906000526020600020905b8154815290600101906020018083116121d757829003601f168201915b505050505081526020016003820154815260200160048201805461221790615adf565b80601f016020809104026020016040519081016040528092919081815260200182805461224390615adf565b80156122905780601f1061226557610100808354040283529160200191612290565b820191906000526020600020905b81548152906001019060200180831161227357829003601f168201915b505050505081526020016005820160009054906101000a900473ffffffffffffffffffffffffffffffffffffffff1673ffffffffffffffffffffffffffffffffffffffff1673ffffffffffffffffffffffffffffffffffffffff1681526020016006820160009054906101000a900473ffffffffffffffffffffffffffffffffffffffff1673ffffffffffffffffffffffffffffffffffffffff1673ffffffffffffffffffffffffffffffffffffffff168152602001600782015481526020016008820154815260200160098201548152602001600a8201805480602002602001604051908101604052809291908181526020016000905b828210156124345783829060005260206000200180546123a790615adf565b80601f01602080910402602001604051908101604052809291908181526020018280546123d390615adf565b80156124205780601f106123f557610100808354040283529160200191612420565b820191906000526020600020905b81548152906001019060200180831161240357829003601f168201915b505050505081526020019060010190612388565b505050508152602001600b820160009054906101000a900460ff166005811115612487577f4e487b7100000000000000000000000000000000000000000000000000000000600052602160045260246000fd5b60058111156124bf577f4e487b7100000000000000000000000000000000000000000000000000000000600052602160045260246000fd5b8152602001600c820180546124d390615adf565b80601f01602080910402602001604051908101604052809291908181526020018280546124ff90615adf565b801561254c5780601f106125215761010080835404028352916020019161254c565b820191906000526020600020905b81548152906001019060200180831161252f57829003601f168201915b50505050508152602001600d8201805461256590615adf565b80601f016020809104026020016040519081016040528092919081815260200182805461259190615adf565b80156125de5780601f106125b3576101008083540402835291602001916125de565b820191906000526020600020905b8154815290600101906020018083116125c157829003601f168201915b5050505050815250509050600081610140015151905081610140015160018261260791906159fc565b8151811061263e577f4e487b7100000000000000000000000000000000000000000000000000000000600052603260045260246000fd5b602002602001015192505050919050565b606060011515600e60003373ffffffffffffffffffffffffffffffffffffffff1673ffffffffffffffffffffffffffffffffffffffff16815260200190815260200160002060009054906101000a900460ff161515146126e4576040517f08c379a00000000000000000000000000000000000000000000000000000000081526004016126db9061580f565b60405180910390fd5b6000600f60003373ffffffffffffffffffffffffffffffffffffffff1673ffffffffffffffffffffffffffffffffffffffff1681526020019081526020016000206040518060200160405290816000820180548060200260200160405190810160405280929190818152602001828054801561277f57602002820191906000526020600020905b81548152602001906001019080831161276b575b50505050508152505090506000816000015151905060008167ffffffffffffffff8111156127d6577f4e487b7100000000000000000000000000000000000000000000000000000000600052604160045260246000fd5b60405190808252806020026020018201604052801561280f57816020015b6127fc61485c565b8152602001906001900390816127f45790505b50905060005b82811015612e7d5760006010600086600001518481518110612860577f4e487b7100000000000000000000000000000000000000000000000000000000600052603260045260246000fd5b60200260200101518152602001908152602001600020604051806101c001604052908160008201805461289290615adf565b80601f01602080910402602001604051908101604052809291908181526020018280546128be90615adf565b801561290b5780601f106128e05761010080835404028352916020019161290b565b820191906000526020600020905b8154815290600101906020018083116128ee57829003601f168201915b5050505050815260200160018201805461292490615adf565b80601f016020809104026020016040519081016040528092919081815260200182805461295090615adf565b801561299d5780601f106129725761010080835404028352916020019161299d565b820191906000526020600020905b81548152906001019060200180831161298057829003601f168201915b505050505081526020016002820180546129b690615adf565b80601f01602080910402602001604051908101604052809291908181526020018280546129e290615adf565b8015612a2f5780601f10612a0457610100808354040283529160200191612a2f565b820191906000526020600020905b815481529060010190602001808311612a1257829003601f168201915b5050505050815260200160038201548152602001600482018054612a5290615adf565b80601f0160208091040260200160405190810160405280929190818152602001828054612a7e90615adf565b8015612acb5780601f10612aa057610100808354040283529160200191612acb565b820191906000526020600020905b815481529060010190602001808311612aae57829003601f168201915b505050505081526020016005820160009054906101000a900473ffffffffffffffffffffffffffffffffffffffff1673ffffffffffffffffffffffffffffffffffffffff1673ffffffffffffffffffffffffffffffffffffffff1681526020016006820160009054906101000a900473ffffffffffffffffffffffffffffffffffffffff1673ffffffffffffffffffffffffffffffffffffffff1673ffffffffffffffffffffffffffffffffffffffff168152602001600782015481526020016008820154815260200160098201548152602001600a8201805480602002602001604051908101604052809291908181526020016000905b82821015612c6f578382906000526020600020018054612be290615adf565b80601f0160208091040260200160405190810160405280929190818152602001828054612c0e90615adf565b8015612c5b5780601f10612c3057610100808354040283529160200191612c5b565b820191906000526020600020905b815481529060010190602001808311612c3e57829003601f168201915b505050505081526020019060010190612bc3565b505050508152602001600b820160009054906101000a900460ff166005811115612cc2577f4e487b7100000000000000000000000000000000000000000000000000000000600052602160045260246000fd5b6005811115612cfa577f4e487b7100000000000000000000000000000000000000000000000000000000600052602160045260246000fd5b8152602001600c82018054612d0e90615adf565b80601f0160208091040260200160405190810160405280929190818152602001828054612d3a90615adf565b8015612d875780601f10612d5c57610100808354040283529160200191612d87565b820191906000526020600020905b815481529060010190602001808311612d6a57829003601f168201915b50505050508152602001600d82018054612da090615adf565b80601f0160208091040260200160405190810160405280929190818152602001828054612dcc90615adf565b8015612e195780601f10612dee57610100808354040283529160200191612e19565b820191906000526020600020905b815481529060010190602001808311612dfc57829003601f168201915b505050505081525050905080838381518110612e5e577f4e487b7100000000000000000000000000000000000000000000000000000000600052603260045260246000fd5b6020026020010181905250508080612e7590615b11565b915050612815565b5080935050505090565b600060011515600560003373ffffffffffffffffffffffffffffffffffffffff1673ffffffffffffffffffffffffffffffffffffffff16815260200190815260200160002060009054906101000a900460ff16151514612f1c576040517f08c379a0000000000000000000000000000000000000000000000000000000008152600401612f139061580f565b60405180910390fd5b60001515600e60008473ffffffffffffffffffffffffffffffffffffffff1673ffffffffffffffffffffffffffffffffffffffff16815260200190815260200160002060009054906101000a900460ff16151514612faf576040517f08c379a0000000000000000000000000000000000000000000000000000000008152600401612fa6906157cf565b60405180910390fd5b81600d84604051612fc09190615697565b908152602001604051809103902060006101000a81548173ffffffffffffffffffffffffffffffffffffffff021916908373ffffffffffffffffffffffffffffffffffffffff1602179055506001600e60008473ffffffffffffffffffffffffffffffffffffffff1673ffffffffffffffffffffffffffffffffffffffff16815260200190815260200160002060006101000a81548160ff021916908315150217905550600b8390806001815401808255809150506001900390600052602060002001600090919091909150908051906020019061309f92919061492f565b50600c829080600181540180825580915050600190039060005260206000200160009091909190916101000a81548173ffffffffffffffffffffffffffffffffffffffff021916908373ffffffffffffffffffffffffffffffffffffffff1602179055506001905092915050565b600060011515600e60003373ffffffffffffffffffffffffffffffffffffffff1673ffffffffffffffffffffffffffffffffffffffff16815260200190815260200160002060009054906101000a900460ff161515146131a2576040517f08c379a00000000000000000000000000000000000000000000000000000000081526004016131999061580f565b60405180910390fd5b6000600f60003373ffffffffffffffffffffffffffffffffffffffff1673ffffffffffffffffffffffffffffffffffffffff16815260200190815260200160002090506000816000018054905090506000805b82811015613266578684600001828154811061323a577f4e487b7100000000000000000000000000000000000000000000000000000000600052603260045260246000fd5b9060005260206000200154141561325357809150613266565b808061325e90615b11565b9150506131f5565b506000811480613281575060018261327e91906159fc565b81145b156132db57826000018054806132c0577f4e487b7100000000000000000000000000000000000000000000000000000000600052603160045260246000fd5b600190038181906000526020600020016000905590556133f7565b60008190505b6001836132ee91906159fc565b8110156133f5578360000160018261330691906159a6565b8154811061333d577f4e487b7100000000000000000000000000000000000000000000000000000000600052603260045260246000fd5b9060005260206000200154846000018281548110613384577f4e487b7100000000000000000000000000000000000000000000000000000000600052603260045260246000fd5b9060005260206000200181905550836000018054806133cc577f4e487b7100000000000000000000000000000000000000000000000000000000600052603160045260246000fd5b6001900381819060005260206000200160009055905580806133ed90615b11565b9150506132e1565b505b60006010600088815260200190815260200160002090508581600d01908051906020019061342692919061492f565b50600481600b0160006101000a81548160ff02191690836005811115613475577f4e487b7100000000000000000000000000000000000000000000000000000000600052602160045260246000fd5b0217905550600194505050505092915050565b61349061485c565b600060106000848152602001908152602001600020604051806101c00160405290816000820180546134c190615adf565b80601f01602080910402602001604051908101604052809291908181526020018280546134ed90615adf565b801561353a5780601f1061350f5761010080835404028352916020019161353a565b820191906000526020600020905b81548152906001019060200180831161351d57829003601f168201915b5050505050815260200160018201805461355390615adf565b80601f016020809104026020016040519081016040528092919081815260200182805461357f90615adf565b80156135cc5780601f106135a1576101008083540402835291602001916135cc565b820191906000526020600020905b8154815290600101906020018083116135af57829003601f168201915b505050505081526020016002820180546135e590615adf565b80601f016020809104026020016040519081016040528092919081815260200182805461361190615adf565b801561365e5780601f106136335761010080835404028352916020019161365e565b820191906000526020600020905b81548152906001019060200180831161364157829003601f168201915b505050505081526020016003820154815260200160048201805461368190615adf565b80601f01602080910402602001604051908101604052809291908181526020018280546136ad90615adf565b80156136fa5780601f106136cf576101008083540402835291602001916136fa565b820191906000526020600020905b8154815290600101906020018083116136dd57829003601f168201915b505050505081526020016005820160009054906101000a900473ffffffffffffffffffffffffffffffffffffffff1673ffffffffffffffffffffffffffffffffffffffff1673ffffffffffffffffffffffffffffffffffffffff1681526020016006820160009054906101000a900473ffffffffffffffffffffffffffffffffffffffff1673ffffffffffffffffffffffffffffffffffffffff1673ffffffffffffffffffffffffffffffffffffffff168152602001600782015481526020016008820154815260200160098201548152602001600a8201805480602002602001604051908101604052809291908181526020016000905b8282101561389e57838290600052602060002001805461381190615adf565b80601f016020809104026020016040519081016040528092919081815260200182805461383d90615adf565b801561388a5780601f1061385f5761010080835404028352916020019161388a565b820191906000526020600020905b81548152906001019060200180831161386d57829003601f168201915b5050505050815260200190600101906137f2565b505050508152602001600b820160009054906101000a900460ff1660058111156138f1577f4e487b7100000000000000000000000000000000000000000000000000000000600052602160045260246000fd5b6005811115613929577f4e487b7100000000000000000000000000000000000000000000000000000000600052602160045260246000fd5b8152602001600c8201805461393d90615adf565b80601f016020809104026020016040519081016040528092919081815260200182805461396990615adf565b80156139b65780601f1061398b576101008083540402835291602001916139b6565b820191906000526020600020905b81548152906001019060200180831161399957829003601f168201915b50505050508152602001600d820180546139cf90615adf565b80601f01602080910402602001604051908101604052809291908181526020018280546139fb90615adf565b8015613a485780601f10613a1d57610100808354040283529160200191613a48565b820191906000526020600020905b815481529060010190602001808311613a2b57829003601f168201915b505050505081525050905080915050919050565b6060600060126000600485604051613a749190615697565b908152602001604051809103902060009054906101000a900473ffffffffffffffffffffffffffffffffffffffff1673ffffffffffffffffffffffffffffffffffffffff1673ffffffffffffffffffffffffffffffffffffffff1681526020019081526020016000209050600081600001805490509050606060005b8281101561415a57600060106000866000018481548110613b3a577f4e487b7100000000000000000000000000000000000000000000000000000000600052603260045260246000fd5b90600052602060002001548152602001908152602001600020604051806101c0016040529081600082018054613b6f90615adf565b80601f0160208091040260200160405190810160405280929190818152602001828054613b9b90615adf565b8015613be85780601f10613bbd57610100808354040283529160200191613be8565b820191906000526020600020905b815481529060010190602001808311613bcb57829003601f168201915b50505050508152602001600182018054613c0190615adf565b80601f0160208091040260200160405190810160405280929190818152602001828054613c2d90615adf565b8015613c7a5780601f10613c4f57610100808354040283529160200191613c7a565b820191906000526020600020905b815481529060010190602001808311613c5d57829003601f168201915b50505050508152602001600282018054613c9390615adf565b80601f0160208091040260200160405190810160405280929190818152602001828054613cbf90615adf565b8015613d0c5780601f10613ce157610100808354040283529160200191613d0c565b820191906000526020600020905b815481529060010190602001808311613cef57829003601f168201915b5050505050815260200160038201548152602001600482018054613d2f90615adf565b80601f0160208091040260200160405190810160405280929190818152602001828054613d5b90615adf565b8015613da85780601f10613d7d57610100808354040283529160200191613da8565b820191906000526020600020905b815481529060010190602001808311613d8b57829003601f168201915b505050505081526020016005820160009054906101000a900473ffffffffffffffffffffffffffffffffffffffff1673ffffffffffffffffffffffffffffffffffffffff1673ffffffffffffffffffffffffffffffffffffffff1681526020016006820160009054906101000a900473ffffffffffffffffffffffffffffffffffffffff1673ffffffffffffffffffffffffffffffffffffffff1673ffffffffffffffffffffffffffffffffffffffff168152602001600782015481526020016008820154815260200160098201548152602001600a8201805480602002602001604051908101604052809291908181526020016000905b82821015613f4c578382906000526020600020018054613ebf90615adf565b80601f0160208091040260200160405190810160405280929190818152602001828054613eeb90615adf565b8015613f385780601f10613f0d57610100808354040283529160200191613f38565b820191906000526020600020905b815481529060010190602001808311613f1b57829003601f168201915b505050505081526020019060010190613ea0565b505050508152602001600b820160009054906101000a900460ff166005811115613f9f577f4e487b7100000000000000000000000000000000000000000000000000000000600052602160045260246000fd5b6005811115613fd7577f4e487b7100000000000000000000000000000000000000000000000000000000600052602160045260246000fd5b8152602001600c82018054613feb90615adf565b80601f016020809104026020016040519081016040528092919081815260200182805461401790615adf565b80156140645780601f1061403957610100808354040283529160200191614064565b820191906000526020600020905b81548152906001019060200180831161404757829003601f168201915b50505050508152602001600d8201805461407d90615adf565b80601f01602080910402602001604051908101604052809291908181526020018280546140a990615adf565b80156140f65780601f106140cb576101008083540402835291602001916140f6565b820191906000526020600020905b8154815290600101906020018083116140d957829003601f168201915b50505050508152505090508083838151811061413b577f4e487b7100000000000000000000000000000000000000000000000000000000600052603260045260246000fd5b602002602001018190525050808061415290615b11565b915050613af0565b50809350505050919050565b60606003805480602002602001604051908101604052809291908181526020016000905b828210156142365783829060005260206000200180546141a990615adf565b80601f01602080910402602001604051908101604052809291908181526020018280546141d590615adf565b80156142225780601f106141f757610100808354040283529160200191614222565b820191906000526020600020905b81548152906001019060200180831161420557829003601f168201915b50505050508152602001906001019061418a565b50505050905090565b600060011515600560003373ffffffffffffffffffffffffffffffffffffffff1673ffffffffffffffffffffffffffffffffffffffff16815260200190815260200160002060009054906101000a900460ff161515146142d4576040517f08c379a00000000000000000000000000000000000000000000000000000000081526004016142cb9061580f565b60405180910390fd5b60001515600960008473ffffffffffffffffffffffffffffffffffffffff1673ffffffffffffffffffffffffffffffffffffffff16815260200190815260200160002060009054906101000a900460ff16151514614367576040517f08c379a000000000000000000000000000000000000000000000000000000000815260040161435e906157cf565b60405180910390fd5b816008846040516143789190615697565b908152602001604051809103902060006101000a81548173ffffffffffffffffffffffffffffffffffffffff021916908373ffffffffffffffffffffffffffffffffffffffff1602179055506001600960008473ffffffffffffffffffffffffffffffffffffffff1673ffffffffffffffffffffffffffffffffffffffff16815260200190815260200160002060006101000a81548160ff02191690831515021790555060068390806001815401808255809150506001900390600052602060002001600090919091909150908051906020019061445792919061492f565b506007829080600181540180825580915050600190039060005260206000200160009091909190916101000a81548173ffffffffffffffffffffffffffffffffffffffff021916908373ffffffffffffffffffffffffffffffffffffffff1602179055506001905092915050565b600080601060008481526020019081526020016000209050600581600b0160006101000a81548160ff0219169083600581111561452b577f4e487b7100000000000000000000000000000000000000000000000000000000600052602160045260246000fd5b02179055508373ffffffffffffffffffffffffffffffffffffffff166108fc349081150290604051600060405180830381858888f19350505050158015614576573d6000803e3d6000fd5b50600191505092915050565b60606001805480602002602001604051908101604052809291908181526020016000905b828210156148535783829060005260206000209060090201604051806101200160405290816000820180546145da90615adf565b80601f016020809104026020016040519081016040528092919081815260200182805461460690615adf565b80156146535780601f1061462857610100808354040283529160200191614653565b820191906000526020600020905b81548152906001019060200180831161463657829003601f168201915b5050505050815260200160018201805461466c90615adf565b80601f016020809104026020016040519081016040528092919081815260200182805461469890615adf565b80156146e55780601f106146ba576101008083540402835291602001916146e5565b820191906000526020600020905b8154815290600101906020018083116146c857829003601f168201915b505050505081526020016002820180546146fe90615adf565b80601f016020809104026020016040519081016040528092919081815260200182805461472a90615adf565b80156147775780601f1061474c57610100808354040283529160200191614777565b820191906000526020600020905b81548152906001019060200180831161475a57829003601f168201915b5050505050815260200160038201805461479090615adf565b80601f01602080910402602001604051908101604052809291908181526020018280546147bc90615adf565b80156148095780601f106147de57610100808354040283529160200191614809565b820191906000526020600020905b8154815290600101906020018083116147ec57829003601f168201915b5050505050815260200160048201548152602001600582015481526020016006820154815260200160078201548152602001600882015481525050815260200190600101906145a6565b50505050905090565b604051806101c001604052806060815260200160608152602001606081526020016000815260200160608152602001600073ffffffffffffffffffffffffffffffffffffffff168152602001600073ffffffffffffffffffffffffffffffffffffffff168152602001600081526020016000815260200160008152602001606081526020016000600581111561491b577f4e487b7100000000000000000000000000000000000000000000000000000000600052602160045260246000fd5b815260200160608152602001606081525090565b82805461493b90615adf565b90600052602060002090601f01602090048101928261495d57600085556149a4565b82601f1061497657805160ff19168380011785556149a4565b828001600101855582156149a4579182015b828111156149a3578251825591602001919060010190614988565b5b5090506149b19190614a42565b5090565b8280546149c190615adf565b90600052602060002090601f0160209004810192826149e35760008555614a31565b82601f106149f45780548555614a31565b82800160010185558215614a3157600052602060002091601f016020900482015b82811115614a30578254825591600101919060010190614a15565b5b509050614a3e9190614a42565b5090565b5b80821115614a5b576000816000905550600101614a43565b5090565b6000614a72614a6d84615882565b615851565b905082815260208101848484011115614a8a57600080fd5b614a95848285615a9d565b509392505050565b600081359050614aac81615c3b565b92915050565b600082601f830112614ac357600080fd5b8135614ad3848260208601614a5f565b91505092915050565b600081359050614aeb81615c52565b92915050565b60008060408385031215614b0457600080fd5b6000614b1285828601614a9d565b9250506020614b2385828601614adc565b9150509250929050565b600060208284031215614b3f57600080fd5b600082013567ffffffffffffffff811115614b5957600080fd5b614b6584828501614ab2565b91505092915050565b60008060408385031215614b8157600080fd5b600083013567ffffffffffffffff811115614b9b57600080fd5b614ba785828601614ab2565b9250506020614bb885828601614a9d565b9150509250929050565b60008060008060008060008060006101208a8c031215614be157600080fd5b60008a013567ffffffffffffffff811115614bfb57600080fd5b614c078c828d01614ab2565b99505060208a013567ffffffffffffffff811115614c2457600080fd5b614c308c828d01614ab2565b98505060408a013567ffffffffffffffff811115614c4d57600080fd5b614c598c828d01614ab2565b97505060608a013567ffffffffffffffff811115614c7657600080fd5b614c828c828d01614ab2565b9650506080614c938c828d01614adc565b95505060a0614ca48c828d01614adc565b94505060c0614cb58c828d01614adc565b93505060e0614cc68c828d01614adc565b925050610100614cd88c828d01614adc565b9150509295985092959850929598565b60008060408385031215614cfb57600080fd5b600083013567ffffffffffffffff811115614d1557600080fd5b614d2185828601614ab2565b9250506020614d3285828601614adc565b9150509250929050565b600060208284031215614d4e57600080fd5b6000614d5c84828501614adc565b91505092915050565b60008060408385031215614d7857600080fd5b6000614d8685828601614adc565b925050602083013567ffffffffffffffff811115614da357600080fd5b614daf85828601614ab2565b9150509250929050565b600080600080600080600060e0888a031215614dd457600080fd5b6000614de28a828b01614adc565b975050602088013567ffffffffffffffff811115614dff57600080fd5b614e0b8a828b01614ab2565b965050604088013567ffffffffffffffff811115614e2857600080fd5b614e348a828b01614ab2565b955050606088013567ffffffffffffffff811115614e5157600080fd5b614e5d8a828b01614ab2565b9450506080614e6e8a828b01614adc565b93505060a088013567ffffffffffffffff811115614e8b57600080fd5b614e978a828b01614ab2565b92505060c088013567ffffffffffffffff811115614eb457600080fd5b614ec08a828b01614ab2565b91505092959891949750929550565b6000614edb838361510c565b905092915050565b6000614eef83836152ef565b905092915050565b6000614f0383836153c9565b905092915050565b614f1481615a30565b82525050565b6000614f25826158e2565b614f2f8185615935565b935083602082028501614f41856158b2565b8060005b85811015614f7d5784840389528151614f5e8582614ecf565b9450614f698361590e565b925060208a01995050600181019050614f45565b50829750879550505050505092915050565b6000614f9a826158e2565b614fa48185615946565b935083602082028501614fb6856158b2565b8060005b85811015614ff25784840389528151614fd38582614ecf565b9450614fde8361590e565b925060208a01995050600181019050614fba565b50829750879550505050505092915050565b600061500f826158ed565b6150198185615957565b93508360208202850161502b856158c2565b8060005b8581101561506757848403895281516150488582614ee3565b94506150538361591b565b925060208a0199505060018101905061502f565b50829750879550505050505092915050565b6000615084826158f8565b61508e8185615968565b9350836020820285016150a0856158d2565b8060005b858110156150dc57848403895281516150bd8582614ef7565b94506150c883615928565b925060208a019950506001810190506150a4565b50829750879550505050505092915050565b6150f781615a42565b82525050565b61510681615a8b565b82525050565b600061511782615903565b6151218185615979565b9350615131818560208601615aac565b61513a81615c16565b840191505092915050565b600061515082615903565b61515a818561598a565b935061516a818560208601615aac565b61517381615c16565b840191505092915050565b600061518982615903565b615193818561599b565b93506151a3818560208601615aac565b80840191505092915050565b60006151bc60068361598a565b91507f436c6f73656400000000000000000000000000000000000000000000000000006000830152602082019050919050565b60006151fc60148361598a565b91507f496e73756666696369656e742062616c616e63650000000000000000000000006000830152602082019050919050565b600061523c60058361598a565b91507f57726f6e670000000000000000000000000000000000000000000000000000006000830152602082019050919050565b600061527c60118361598a565b91507f496e73756666696369656e742066756e640000000000000000000000000000006000830152602082019050919050565b60006152bc600e8361598a565b91507f4e6f7420617574686f72697a65640000000000000000000000000000000000006000830152602082019050919050565b600061012083016000830151848203600086015261530d828261510c565b91505060208301518482036020860152615327828261510c565b91505060408301518482036040860152615341828261510c565b9150506060830151848203606086015261535b828261510c565b91505060808301516153706080860182615679565b5060a083015161538360a0860182615679565b5060c083015161539660c0860182615679565b5060e08301516153a960e0860182615679565b506101008301516153be610100860182615679565b508091505092915050565b60006101c08301600083015184820360008601526153e7828261510c565b91505060208301518482036020860152615401828261510c565b9150506040830151848203604086015261541b828261510c565b91505060608301516154306060860182615679565b5060808301518482036080860152615448828261510c565b91505060a083015161545d60a0860182614f0b565b5060c083015161547060c0860182614f0b565b5060e083015161548360e0860182615679565b50610100830151615498610100860182615679565b506101208301516154ad610120860182615679565b506101408301518482036101408601526154c78282614f1a565b9150506101608301516154de6101608601826150fd565b506101808301518482036101808601526154f8828261510c565b9150506101a08301518482036101a0860152615514828261510c565b9150508091505092915050565b60006101c083016000830151848203600086015261553f828261510c565b91505060208301518482036020860152615559828261510c565b91505060408301518482036040860152615573828261510c565b91505060608301516155886060860182615679565b50608083015184820360808601526155a0828261510c565b91505060a08301516155b560a0860182614f0b565b5060c08301516155c860c0860182614f0b565b5060e08301516155db60e0860182615679565b506101008301516155f0610100860182615679565b50610120830151615605610120860182615679565b5061014083015184820361014086015261561f8282614f1a565b9150506101608301516156366101608601826150fd565b50610180830151848203610180860152615650828261510c565b9150506101a08301518482036101a086015261566c828261510c565b9150508091505092915050565b61568281615a81565b82525050565b61569181615a81565b82525050565b60006156a3828461517e565b915081905092915050565b600060208201905081810360008301526156c88184614f8f565b905092915050565b600060208201905081810360008301526156ea8184615004565b905092915050565b6000602082019050818103600083015261570c8184615079565b905092915050565b600060208201905061572960008301846150ee565b92915050565b600060208201905081810360008301526157498184615145565b905092915050565b6000606082019050818103600083015261576b8186615145565b905061577a6020830185615688565b6157876040830184615688565b949350505050565b600060208201905081810360008301526157a8816151af565b9050919050565b600060208201905081810360008301526157c8816151ef565b9050919050565b600060208201905081810360008301526157e88161522f565b9050919050565b600060208201905081810360008301526158088161526f565b9050919050565b60006020820190508181036000830152615828816152af565b9050919050565b600060208201905081810360008301526158498184615521565b905092915050565b6000604051905081810181811067ffffffffffffffff8211171561587857615877615be7565b5b8060405250919050565b600067ffffffffffffffff82111561589d5761589c615be7565b5b601f19601f8301169050602081019050919050565b6000819050602082019050919050565b6000819050602082019050919050565b6000819050602082019050919050565b600081519050919050565b600081519050919050565b600081519050919050565b600081519050919050565b6000602082019050919050565b6000602082019050919050565b6000602082019050919050565b600082825260208201905092915050565b600082825260208201905092915050565b600082825260208201905092915050565b600082825260208201905092915050565b600082825260208201905092915050565b600082825260208201905092915050565b600081905092915050565b60006159b182615a81565b91506159bc83615a81565b9250827fffffffffffffffffffffffffffffffffffffffffffffffffffffffffffffffff038211156159f1576159f0615b5a565b5b828201905092915050565b6000615a0782615a81565b9150615a1283615a81565b925082821015615a2557615a24615b5a565b5b828203905092915050565b6000615a3b82615a61565b9050919050565b60008115159050919050565b6000819050615a5c82615c27565b919050565b600073ffffffffffffffffffffffffffffffffffffffff82169050919050565b6000819050919050565b6000615a9682615a4e565b9050919050565b82818337600083830152505050565b60005b83811015615aca578082015181840152602081019050615aaf565b83811115615ad9576000848401525b50505050565b60006002820490506001821680615af757607f821691505b60208210811415615b0b57615b0a615bb8565b5b50919050565b6000615b1c82615a81565b91507fffffffffffffffffffffffffffffffffffffffffffffffffffffffffffffffff821415615b4f57615b4e615b5a565b5b600182019050919050565b7f4e487b7100000000000000000000000000000000000000000000000000000000600052601160045260246000fd5b7f4e487b7100000000000000000000000000000000000000000000000000000000600052602160045260246000fd5b7f4e487b7100000000000000000000000000000000000000000000000000000000600052602260045260246000fd5b7f4e487b7100000000000000000000000000000000000000000000000000000000600052604160045260246000fd5b6000601f19601f8301169050919050565b60068110615c3857615c37615b89565b5b50565b615c4481615a30565b8114615c4f57600080fd5b50565b615c5b81615a81565b8114615c6657600080fd5b5056fea26469706673582212202cf0e41b7bb569dc759882605f213d0331442e659bd3c99654fd36a6501d77f464736f6c63430008000033",
  "immutableReferences": {},
  "source": "// SPDX-License-Identifier: GPL-3.0\npragma solidity >=0.7.5 <=0.8.0;\n\n contract CropInsurance {\n    /*\n\t* State Variables\n\t*/\n\t// Stores the policy state\n\tenum PolicyState { Invalid, Purchased, Claimed, Dispatched, Finished, Paid }\n\n\t//Define available policy \n\tstruct AvailablePolicy {\n\t    string policyName;\n\t    string description;\n\t    string maxCoverageLevel;\n\t    string minCoverageLevel;\n\t    uint salesClosingDate;\n        uint finalPlantingDate;\n        uint acreageReportingDate;\n        uint productionReportingDate;\n\t    uint premiumAmount;\n\t}\n\n\t\n\t// Stores a struct that represents a flight insurance policy\n\tstruct Policy {\n        string policyName;\n\t    string farmerName;\n\t    string providerName;\n        uint farmlandNumber;\n        string coverageLevel;\n\t    address payable farmerAddress;\n\t    address payable providerAddress;  \n        uint acreage;\n\t    uint plantDate;\n\t    uint productionPerAcre;\n\t    string[] practiceRecords;\n\t    PolicyState policyState;\n        string claimContent;\n        string investigationContent;\n\t}\n\t\n\t// Store all farmlands maintained by a farmer\n\tstruct FarmlandByFarmer {\n\t    uint[] FarmlandIndexByFarmer;\n\t    mapping(uint => bool) farmerOwnFarmland;\n\t}\n\t\n\t// Store all farmlands maintained by an insurance provider\n\tstruct FarmlandByProvider {\n\t    uint[] FarmlandIndexByProvider;\n\t    mapping(uint => bool) providerOwnFarmland;\n\t}\n\n    // Store all claimed policy for an insurance adjuster\n    struct AdjusterWorkload {\n        uint [] ClaimedFarmland;\n    }\n\n    // Store all feedback form an insurance agent\n    struct AgentFeedback {\n        // each element is an ipfs cid\n        string [] feedback;\n    }\n\n    // Mapping from available policy index to available policies\n    mapping(string => AvailablePolicy) mapNameToAvailablePolicy;\n    AvailablePolicy [] availablePoliciesList;\n    \n    \n    //Store the regulatory authority's address\n    address payable regulatoryAuthority;\n    \n    // // List of all farmer\n\t// address payable[] farmerAddressList;\n    // mapping(address => bool) whetherFarmerExist;\n    \n    // List of all provider\n    string [] providerNameList;\n    // address payable[] providerAddressList;\n    // Mapping from provider's name to provider's address\n\tmapping(string => address payable) mapProviderNameToAddress;\n\tmapping(address => bool) isInsuranceProvider;\n\n    // List of all agent\n    string [] agentNameList;\n    address payable[] agentAddressList;\n    // Mapping from agent's name to agent's address\n\tmapping(string => address payable) mapAgentNameToAddress;\n\tmapping(address => bool) isInsuranceAgent;\n    mapping(address => AgentFeedback) mapAgentToFeedback;\n\n    // List of all adjuster\n    string [] adjusterNameList;\n    address payable[] adjusterAddressList;\n    // Mapping from agent's name to agent's address\n\tmapping(string => address payable) mapAdjusterNameToAddress;\n\tmapping(address => bool) isInsuranceAdjuster;\n    mapping(address => AdjusterWorkload) mapAdjusterToWorkload;   \n\t\n\t// Mapping from farmland to insurance policy;\n\tmapping(uint => Policy) mapFarmlandToPolicy;\n    // Mapping from farmerAddress to his farmland list\n\tmapping(address => FarmlandByFarmer) mapFarmerToFarmland;\n\t// Mapping from provider to famrland covered by him\n    mapping(address => FarmlandByProvider) mapProviderToFarmland;\n\t\n\n    \n\n\n    /*\n\t* Constructor\n\t*/\n\tconstructor() {\n        regulatoryAuthority = payable(msg.sender);\n    }\n    \n\n    /*\n\t* Farmer Functions\n\t*/\n\t// 1. view_available_policies\n\tfunction viewAvailablePolicies () public view returns (AvailablePolicy [] memory) {\n\t    return availablePoliciesList;\t    \n\t} \n\t\n\n\t\n\t// 2. purchase_policy\n\tfunction purchasePolicy(uint _today, string memory _policyName, string memory _farmerName, string memory _providerName, \n    uint _farmlandNumber,  string memory _coverageLevel, string memory _PracticeAddr) public payable {   \n        require(msg.sender.balance >= msg.value, \"Insufficient balance\");\t\n\t\tAvailablePolicy memory availablePolicy = mapNameToAvailablePolicy[_policyName];\n\t\tuint _premiumAmount = availablePolicy.premiumAmount;\n\t\trequire(msg.value >= _premiumAmount, \"Insufficient fund\");\n\t\tuint _salesClosingDate = availablePolicy.salesClosingDate;\n        require(_today <= _salesClosingDate, \"Closed\");\n\t\taddress payable _providerAddress = mapProviderNameToAddress[_providerName];\n\t\t\n\t\tPolicy storage newPolicy = mapFarmlandToPolicy[_farmlandNumber];\n        newPolicy.policyName = _policyName;\n\t\tnewPolicy.farmerName = _farmerName;\n        newPolicy.providerName = _providerName;\n        newPolicy.farmlandNumber = _farmlandNumber;\n\t\tnewPolicy.coverageLevel = _coverageLevel;\n        newPolicy.farmerAddress = payable(msg.sender);\n        newPolicy.providerAddress = _providerAddress;\n\n\t\tnewPolicy.policyState = PolicyState.Purchased;\t\t\n        newPolicy.practiceRecords.push( _PracticeAddr);\n\t\t\n        // mapProviderNameToAddress[_providerName] = newPolicy;\n        \n        // //Update farmerAddressList\n        // if (whetherFarmerExist[msg.sender] == false) {\n        //     farmerAddressList.push(payable(msg.sender));\n        //     whetherFarmerExist[msg.sender] == true;\n        // }\n\t    \n\t    //Update mapFarmerToFarmland\n\t\tFarmlandByFarmer storage farmlandByFarmer = mapFarmerToFarmland[msg.sender];\n\t\tfarmlandByFarmer.FarmlandIndexByFarmer.push(_farmlandNumber);\n        farmlandByFarmer.farmerOwnFarmland[_farmlandNumber] = true;\n\t\t// Update mapProviderToFarmland\n\t\tFarmlandByProvider storage farmlandByProvider = mapProviderToFarmland[_providerAddress];\n\t\tfarmlandByProvider.FarmlandIndexByProvider.push(_farmlandNumber);\n        farmlandByProvider.providerOwnFarmland[_farmlandNumber] = true;\n\t\t\n\t\t// Send premium to provider\n        _providerAddress.transfer(msg.value);\n        \n\t}\n\n\t// 3. view_purchased_policy\n\tfunction viewPurchasedPolicy(uint _farmlandNumber) public view returns(Policy memory policy) {\n\t\t// // Check if the farmer has ownership to that farmland\n\t\t// FarmlandByFarmer storage farmlandByFarmer = mapFarmerToFarmland[msg.sender];\n\t\t// require(farmlandByFarmer.farmerOwnFarmland[_farmlandNumber] == true, \"No ownership\");\n\t\t\n\t\tPolicy memory farmerPolicy = mapFarmlandToPolicy[_farmlandNumber];\n\t\treturn farmerPolicy;\n\t}\n\t\n\t// 4. view_policy_status\n\t// function viewPolicyStatus (uint _farmlandNumber) private view returns (string memory _policyStatus) {\n\t//     // Check if the farmer has ownership to that farmland\n\t// \t// FarmlandByFarmer storage farmlandByFarmer = mapFarmerToFarmland[msg.sender];\n\t// \t// require(farmlandByFarmer.farmerOwnFarmland[_farmlandNumber] == true, \"No ownership\");\n\t\t\n\t//     Policy memory farmerPolicy = mapFarmlandToPolicy[_farmlandNumber];\n\t// \tif(PolicyState.Invalid == farmerPolicy.policyState) return \"Invalid\";\n\t// \tif(PolicyState.Purchased == farmerPolicy.policyState) return \"Purchased\";\n\t// \tif(PolicyState.Claimed == farmerPolicy.policyState) return \"Claimed\";\n    //     if(PolicyState.Dispatched == farmerPolicy.policyState) return \"Investigator Dispatched\";\n    //     if(PolicyState.Finished == farmerPolicy.policyState) return \"Investigation Finished\";\n\t// \tif(PolicyState.Paid == farmerPolicy.policyState) return \"Paid\";\n\t// }\n        \n    // // 5. report_acreage\n    // function reportAcreage(uint _today, uint _farmlandNumber, uint _acreage) public returns(bool _isSuccess) {\n    //     // // Check if the farmer has ownership to that farmland\n\t// \t// FarmlandByFarmer storage farmlandByFarmer = mapFarmerToFarmland[msg.sender];\n\t// \t// require(farmlandByFarmer.farmerOwnFarmland[_farmlandNumber] == true, \"You do not own this farmland\");\n\t\t\n\t// \tPolicy storage farmerPolicy = mapFarmlandToPolicy[_farmlandNumber];\n    //     AvailablePolicy memory policy = mapNameToAvailablePolicy[farmerPolicy.policyName];\n    //     if (_today < policy.acreageReportingDate) {\n    //         farmerPolicy.acreage = _acreage;\n    //     } else {\n    //         farmerPolicy.policyState = PolicyState.Invalid;\t\n    //     }\n\t// \treturn true;\n\t// }\n\t// // 6. report_plant_date\n\t// function reportPlantDate(uint _today, uint _farmlandNumber) public returns(bool _isSuccess) {\n    //     // // Check if the farmer has ownership to that farmland\n\t// \t// FarmlandByFarmer storage farmlandByFarmer = mapFarmerToFarmland[msg.sender];\n\t// \t// require(farmlandByFarmer.farmerOwnFarmland[_farmlandNumber] == true, \"You do not own this farmland\");\n\t\t\n\t// \tPolicy storage farmerPolicy = mapFarmlandToPolicy[_farmlandNumber];\n    //     AvailablePolicy memory policy = mapNameToAvailablePolicy[farmerPolicy.policyName];\n    //     if (_today < policy.finalPlantingDate) {\n    //         farmerPolicy.plantDate = _today;\n    //     } else {\n    //         farmerPolicy.policyState = PolicyState.Invalid;\t\n    //     }\n\t// \treturn true;\n\t// }\n\n    // // 7. report_productionPerAcre\n    // function reportProductionPerAcre (uint _today, uint _farmlandNumber, uint _productionPerAcre) public returns (bool _isSuccess) {\n    //     // // Check if the farmer has ownership to that farmland\n\t// \t// FarmlandByFarmer storage farmlandByFarmer = mapFarmerToFarmland[msg.sender];\n\t// \t// require(farmlandByFarmer.farmerOwnFarmland[_farmlandNumber] == true, \"You do not own this farmland\");\n\t\t\n\t// \tPolicy storage farmerPolicy = mapFarmlandToPolicy[_farmlandNumber];\n    //     AvailablePolicy memory policy = mapNameToAvailablePolicy[farmerPolicy.policyName];\n    //     if (_today < policy.productionReportingDate) {\n    //         farmerPolicy.productionPerAcre = _productionPerAcre;\n    //     } else {\n    //         farmerPolicy.policyState = PolicyState.Invalid;\t\n    //     }\n\t// \treturn true;\n    // }\n\t\n\t// 8. add_practiceRecord\n\tfunction addPracticeRecord(string memory _newPracticeAddr, uint _farmlandNumber) public {\n\t    // //check if the farmer has ownership to that farmland\n\t\t// FarmlandByFarmer storage farmlandByFarmer = mapFarmerToFarmland[msg.sender];\n\t\t// require(farmlandByFarmer.farmerOwnFarmland[_farmlandNumber] == true, \"You do not own this farmland\");\n\t\t\n\t\tPolicy storage farmerPolicy = mapFarmlandToPolicy[_farmlandNumber];\n\t\tfarmerPolicy.practiceRecords.push( _newPracticeAddr);\n\t}\n\t\n\t// // 9. view_all_practiceRecord\n\t// function viewAllPracticeRecords(uint _farmlandNumber) public view returns(string[] memory _practiceRecords) {\n\t//     // // Check if the message sender has ownership to that farmland\n\t// \t// FarmlandByFarmer storage farmlandByFarmer = mapFarmerToFarmland[msg.sender];\n\t// \t// require(farmlandByFarmer.farmerOwnFarmland[_farmlandNumber] == true, \"You do not own this farmland\");\n\t\t\n\t// \tPolicy memory farmerPolicy = mapFarmlandToPolicy[_farmlandNumber];\n\t// \treturn farmerPolicy.practiceRecords;\n\t// }\n\t\n\t// 10. view_lastest_practiceRecord\n\tfunction viewLastPracticeRecord(uint _farmlandNumber) public view returns(string memory _lastestRecord) {\n\t    // // Check if the message sender has ownership to that farmland\n\t\t// FarmlandByFarmer storage farmlandByFarmer = mapFarmerToFarmland[msg.sender];\n\t\t// require(farmlandByFarmer.farmerOwnFarmland[_farmlandNumber] == true, \"You do not own this farmland\");\n\t    \n\t    Policy memory farmerPolicy = mapFarmlandToPolicy[_farmlandNumber];\n\t    uint len = farmerPolicy.practiceRecords.length;\n\t    return farmerPolicy.practiceRecords[len - 1];\n\t}\n\n    //11. claim_loss\n    function claimLoss (uint _farmlandNumber, string memory _claimContent) public returns(bool _isSuccess) {\n        FarmlandByFarmer storage farmlandByFarmer = mapFarmerToFarmland[msg.sender];\n\t\trequire(farmlandByFarmer.farmerOwnFarmland[_farmlandNumber] == true, \"Not authorized\");\n\t\t\n\t\tPolicy storage farmerPolicy = mapFarmlandToPolicy[_farmlandNumber];\n        farmerPolicy.claimContent = _claimContent;\n        farmerPolicy.policyState = PolicyState.Claimed;\n        return true;\n    }\n\t\n\t/*\n\t* Regulatory Authority Functions\n\t*/\n\t\n\t// 1. publish new insurance policy\n\tfunction publishNewPolicy(string memory _policyName, string memory _description, string memory _maxCoverageLevel, \n\tstring memory _minCoverageLevel, uint _salesClosingDate, uint _finalPlantingDate, \n    uint _acreageReportingDate, uint _productionReportingDate, uint _premiumAmount) public {\n\t    require(msg.sender == regulatoryAuthority, \"Not authorized\");\n\n\t    AvailablePolicy storage newAvailablePolicy = mapNameToAvailablePolicy[_policyName];\n\t    newAvailablePolicy.policyName = _policyName;\n\t    newAvailablePolicy.description = _description;\n\t    newAvailablePolicy.maxCoverageLevel = _maxCoverageLevel;\n\t    newAvailablePolicy.minCoverageLevel = _minCoverageLevel;\n\t    newAvailablePolicy.salesClosingDate = _salesClosingDate;\n        newAvailablePolicy.finalPlantingDate = _finalPlantingDate; \n        newAvailablePolicy.acreageReportingDate = _acreageReportingDate;\n        newAvailablePolicy.productionReportingDate = _productionReportingDate;\n\t    newAvailablePolicy.premiumAmount = _premiumAmount;\n\t    availablePoliciesList.push(newAvailablePolicy);\n\t}\n\t\n\t// 2. add insurance provider\n    function addProvider(string memory _providerName, address payable _providerAddress) public returns (bool _isSuccessful) {\n    \trequire(msg.sender == regulatoryAuthority, \"Not authorized\");\n        require(isInsuranceProvider[_providerAddress] == false, \"Wrong\");\n    \tmapProviderNameToAddress[_providerName] = _providerAddress;\n    \tisInsuranceProvider[_providerAddress] = true;\n        providerNameList.push(_providerName);\n    \t// providerAddressList.push(_providerAddress);\n    \treturn true;\n    }\t  \n\n    // 3. view providers\n    function viewProviders() public view returns (string[] memory _name) {\n        return providerNameList;\n    }\n    // 4. View policies sold by provider\n\tfunction viewSoldPoliciesByProvider(string memory _providerName) public view returns(Policy [] memory _policies) {\n\t\t// require(msg.sender == regulatoryAuthority, \"Not authorized\");\n\t    \n\t    // address payable providerAddr = mapProviderNameToAddress[_providerName];\n\t    // require(isInsuranceProvider[providerAddr] == true, \"He is not an insurance provider\");\n        \n        FarmlandByProvider storage farmlandByProvider = mapProviderToFarmland[mapProviderNameToAddress[_providerName]];\n        uint numOfFarmland = farmlandByProvider.FarmlandIndexByProvider.length;\n        Policy [] memory policies;\n        for (uint i = 0; i < numOfFarmland; i++) {\n            Policy memory temp = mapFarmlandToPolicy[farmlandByProvider.FarmlandIndexByProvider[i]];\n            policies[i] = temp;\n        }\n        return policies;\n\t}\n\n    \n    /*\n\t* Insurance Provider Functions\n\t*/\n\t// 1. view all policies sold by the provider \n    // function viewSoldPolicies () public view returns (Policy[] memory _policies) {\n    //     // require(isInsuranceProvider[msg.sender] == true, \"Only the insurance provider can view policies that have been sold\");\n    //     FarmlandByProvider storage farmlandByProvider = mapProviderToFarmland[msg.sender];\n    //     uint numOfFarmland = farmlandByProvider.FarmlandIndexByProvider.length;\n    //     Policy [] memory policies;\n    //     for (uint i = 0; i < numOfFarmland; i++) {\n    //         Policy memory temp = mapFarmlandToPolicy[farmlandByProvider.FarmlandIndexByProvider[i]];\n    //         policies[i] = temp;\n    //     }\n\n    //     return policies;\n    // }\n    \n    // 2. calculate indemnity\n    function calculateIndemnity (uint _farmlandNumber) public view \n    returns (string memory _coverageLevel, uint _acreage, uint _productionPerAcer) {\n        require(isInsuranceProvider[msg.sender] == true, \"Not authorized\");\n        // //Check whether the message sender covers that farmland\n        // FarmlandByProvider storage farmlandByProvider = mapProviderToFarmland[msg.sender];\n        // require(farmlandByProvider.providerOwnFarmland[_farmlandNumber] == true, \"You do not manage this farmland\");\n\n        Policy memory policy = mapFarmlandToPolicy[_farmlandNumber];\n\n        return (policy.coverageLevel, policy.acreage, policy.productionPerAcre);\n    }\n\n    // 3. view farmer's practice record \n    // function viewPracticeByFarmer(address payable _farmerAddress, uint _farmlandNumber) public view returns (string memory _record) {\n    // function viewPracticeByFarmer( uint _farmlandNumber) public view returns (string memory _record) {\n    //     // require(isInsuranceProvider[msg.sender] == true, \"You are not an insurance provider\");\n    //     // //Check whether the message sender covers that farmland\n    //     // FarmlandByProvider storage farmlandByProvider = mapProviderToFarmland[msg.sender];\n    //     // require(farmlandByProvider.providerOwnFarmland[_farmlandNumber] == true, \"You do not manage this farmland\");\n        \n    //     // Set policy state to Paid\n    //     Policy memory policy = mapFarmlandToPolicy[_farmlandNumber];\n    //     uint len = policy.practiceRecords.length; \n        \n    //     return policy.practiceRecords[len - 1];\n    // }\n\n    // 4. pay indemnity to the farmer\n    function payIndemnity(address payable _farmerAddress, uint _farmlandNumber) public payable returns (bool _isSuccessful) {\n        // require(isInsuranceProvider[msg.sender] == true, \"Not authorized\");\n        // //Check whether the message sender covers that farmland\n        // FarmlandByProvider storage farmlandByProvider = mapProviderToFarmland[msg.sender];\n        // require(farmlandByProvider.providerOwnFarmland[_farmlandNumber] == true, \"You do not manage this farmland\");\n        \n        // Set policy state to Paid\n        Policy storage policy = mapFarmlandToPolicy[_farmlandNumber];\n        policy.policyState = PolicyState.Paid;\n        \n        // Send indemnity\n        _farmerAddress.transfer(msg.value);\n        return true;\n    }\n\n    // 5. add_insurance_agent\n    function addAgent(string memory _agentName, address payable _agentAddress) public returns (bool _isSuccessful) {\n        require(isInsuranceProvider[msg.sender] == true, \"Not authorized\");\n        require(isInsuranceAgent[_agentAddress] == false, \"Wrong\");\n    \tmapAgentNameToAddress[_agentName] = _agentAddress;\n    \tisInsuranceAgent[_agentAddress] = true;\n        agentNameList.push(_agentName);\n    \tagentAddressList.push(_agentAddress);\n    \treturn true;\n    }\t\n\n    // 6. add_insurance_adjuster\n    function addAdjuster(string memory _adjusterName, address payable _adjusterAddress) public returns (bool _isSuccessful) {\n        require(isInsuranceProvider[msg.sender] == true, \"Not authorized\");\n        require(isInsuranceAdjuster[_adjusterAddress] == false, \"Wrong\");\n    \tmapAdjusterNameToAddress[_adjusterName] = _adjusterAddress;\n    \tisInsuranceAdjuster[_adjusterAddress] = true;\n        adjusterNameList.push(_adjusterName);\n    \tadjusterAddressList.push(_adjusterAddress);\n\n    \treturn true;\n    }\n\n    // 7. view_claimed_policies\n    function viewClaimedPolicy() public view returns (Policy[] memory claimedPolicyList) {\n        require(isInsuranceProvider[msg.sender] == true, \"Not authorized\");\n        FarmlandByProvider storage farmlandByProvider = mapProviderToFarmland[msg.sender];\n        uint numOfFarmland = farmlandByProvider.FarmlandIndexByProvider.length;\n\n        uint claimCount = 0;\n        for (uint i = 0; i < numOfFarmland; i++) {\n            Policy memory temp;\n            if (temp.policyState == PolicyState.Claimed) {\n                claimCount++;\n            }      \n        }\n        Policy [] memory policies = new Policy [](claimCount);\n        uint j = 0;\n        for (uint i = 0; i < numOfFarmland; i++) {\n            Policy memory temp;\n            if (temp.policyState == PolicyState.Claimed) {\n                policies[j] = temp;\n                j++;\n            }      \n        }\n        return policies;\n    }  \n\n    // 8. assign_claim_to_adjuster\n    function assignClaim (uint _farmlandNumber, string memory _adjusterName) public returns (bool _isSuccess) {\n        // require(isInsuranceProvider[msg.sender] == true, \"Only the insurance provider can view policies that have been sold\");\n        // FarmlandByProvider storage farmlandByProvider = mapProviderToFarmland[msg.sender];\n        // require(farmlandByProvider.providerOwnFarmland[_farmlandNumber] == true, \"You do not manage this farmland\");\n        \n        // Assign workload to an adjuster\n        address _adjusterAddress = mapAdjusterNameToAddress[_adjusterName];\n        AdjusterWorkload storage adjusterWorkload = mapAdjusterToWorkload[_adjusterAddress];\n        adjusterWorkload.ClaimedFarmland.push(_farmlandNumber);\n        // Set policy state to Dispatched\n        Policy storage policy = mapFarmlandToPolicy[_farmlandNumber];\n        policy.policyState = PolicyState.Dispatched;\n        return true;\n    }\n\n    // 9. view_feedback_from_agent\n    function viewFeedback(string memory _agentName) public view returns (string[] memory _feedback) {\n        require(isInsuranceProvider[msg.sender] == true, \"Not authorized\");\n        \n        address _agentAddress = mapAgentNameToAddress[_agentName];\n        AgentFeedback memory agentFeedback = mapAgentToFeedback[_agentAddress];\n        return agentFeedback.feedback;\n\n    }\n\n    /*\n\t* Insurance Adjuster Functions\n\t*/\n    // 1. view_workload\n    function viewWorkload () public view returns (Policy[] memory _myWork) {\n        require(isInsuranceAdjuster[msg.sender] == true, \"Not authorized\");\n        AdjusterWorkload memory workload = mapAdjusterToWorkload[msg.sender];\n        uint len = workload.ClaimedFarmland.length;\n        Policy [] memory myWork = new Policy [](len);\n        for (uint i = 0; i < len; i++) {\n            Policy memory temp = mapFarmlandToPolicy[workload.ClaimedFarmland[i]];\n            myWork[i] = temp;\n        }\n        return myWork;\n    }\n\n    // 2. add_investigation_result\n    function addInvestigationResult(uint _farmlandNumber, string memory _res) public returns (bool _isSuccess) {\n        require(isInsuranceAdjuster[msg.sender] == true, \"Not authorized\");\n        AdjusterWorkload storage workload = mapAdjusterToWorkload[msg.sender];\n        uint len = workload.ClaimedFarmland.length;\n\n        // identify farmland index in ClaimedFarmland array\n        uint index = 0;\n        for (uint i = 0; i < len; i++) {\n            if(workload.ClaimedFarmland[i] == _farmlandNumber) {\n                index = i;\n                break;\n            }\n        }\n\n        // delete this farmland from workload array\n        if (index == 0 || index == len - 1){\n            workload.ClaimedFarmland.pop();\n        } else {\n            for (uint i = index; i < len - 1; i++) {\n                workload.ClaimedFarmland[i] = workload.ClaimedFarmland[i+1];\n                workload.ClaimedFarmland.pop();\n            }\n        }\n\n        Policy storage policy = mapFarmlandToPolicy[_farmlandNumber];\n        // upload investigation result\n        policy.investigationContent = _res;\n        // change policy state to finished\n        policy.policyState = PolicyState.Finished;\n        return true;\n    }\n\n\n    /*\n\t* Insurance Agent Functions (optional agent, could be 3rd party independent agent or insurance company agent)\n\t*/\n    // 1. view_available_policies\n    // function viewAvailablePolicies () \n\n    // 2. Help farmer purchase policy\n    // function purchasePolicy\n    // 3. Feedback to an insurance provider on the specific policy\n    function addFeedback (string memory _feedback) public returns (bool _isSuccess) {\n        require(isInsuranceAgent[msg.sender] == true, \"Not authorized\");        \n        AgentFeedback storage agentFeedback = mapAgentToFeedback[msg.sender];\n        agentFeedback.feedback.push(_feedback);\n        return true;\n    }\n\n }\n\n\n\n",
  "sourcePath": "/home/ethereum/Desktop/CropInsurance_test_V2/src/contracts/CropInsurance.sol",
  "compiler": {
    "name": "solc",
    "version": "0.8.0+commit.c7dfd78e.Emscripten.clang"
  },
  "schemaVersion": "3.2.3",
  "updatedAt": "2021-07-13T20:13:53.791Z",
  "networkType": "ethereum",
  "devdoc": {
    "kind": "dev",
    "methods": {},
    "version": 1
  },
  "userdoc": {
    "kind": "user",
    "methods": {},
    "version": 1
  }
}